:060000000A128A110C280F
:10000800FE00030EF1000A08F2000A128A1169299B
:100018000A128A110F2883134B30FD000230FE00AC
:100028003E30FF00413084000A128A1122220A124F
:100038008A11CB01CC01CD01CE01CF01F701F80126
:10004800F901FA0183010A128A11B5290A30F3006D
:100058000030F400831203132608F6002508F50083
:100068000A128A110E210A128A11740883120313C4
:10007800B2007308B1003208AC003108AB000A3096
:10008800F3000030F4002608F6002508F5000A12EF
:100098008A11A5200A128A11740883120313A60074
:1000A8007308A5000A30F3000030F4002608F600B3
:1000B8002508F5000A128A110E210A128A117408FD
:1000C80083120313B2007308B1003208AE0031087E
:1000D800AD000A30F3000030F4002608F6002508C9
:1000E800F5000A128A11A5200A128A1174088312CF
:1000F8000313A6007308A5002608B0002508AF0062
:100108002C08B8002B08B7002E08B6002D08B5003B
:100118003008B4002F08B300253084003308831357
:100128008000840A34088000840A35088000840A24
:1001380036088000840A37088000840A380880005E
:10014800080083120313A201F41FAB28AC28B328BC
:10015800F309F409F30A0319F40AA201A20AF61F23
:10016800B628B728C028F509F609F50A0319F60ACA
:100178000130A0002008A206A301A401730874049A
:100188000319C728C828FF28A101A10AD6280130C9
:100198000310F30DF40DFF3E031DCC280130A00021
:1001A8002008A107F41FD928DA28CB28013003102A
:1001B800A30DA40DFF3E031DDB2874087602031D62
:1001C800E72873087502031CEA28EB28F22873084D
:1001D800F5027408031CF603F60223140130031019
:1001E800F40CF30CFF3E031DF3280130A102031D9C
:1001F800FE28FF28DA2822080319032904290929D7
:10020800A309A409A30A0319A40A2408F4002308CB
:10021800F300080083120313A201F61F14291529FD
:100228001C29F509F609F50A0319F60AA201A20A1A
:10023800F41F1F2920292529F309F409F30A0319B2
:10024800F40A7308740403192A292B295A29A101CD
:10025800A10A392901300310F30DF40DFF3E031DE7
:100268002F290130A0002008A107F41F3C293D29AF
:100278002E2974087602031D432973087502031C8E
:10028800462947294D297308F5027408031CF6030B
:10029800F60201300310F40CF30CFF3E031D4E2947
:1002A8000130A102031D59295A293D2922080319A1
:1002B8005E295F296429F509F609F50A0319F60A82
:1002C8007608F4007508F30008000B1C6C296D29EA
:1002D8007F2983120313061872297329782901309C
:1002E800F000700885077E2986187B297C297E29DD
:1002F800013085020B100B1D82298329AE29831238
:10030800031388017808031D8A298B29922952082A
:10031800870001308800F801F80AAB297803031D2B
:1003280096299729A02951088700023088000230B1
:10033800F0007008F800AB2902307806031DA529E3
:10034800A629AB295008870004308800F8010B1152
:10035800D930810072088A00710E8300FE0E7E0E6D
:1003680009000A128A11FC210A128A110A128A113A
:1003780031220A128A11831203130508B900BA013F
:100388003908A5003A08A6000A128A112A200A127A
:100398008A113B30840083120313250883138000DD
:1003A800840A26088000840A27088000840A28080E
:1003B8008000840A29088000840A2A0880003F08EF
:1003C800413E84000008B9003908D0003D08413E8C
:1003D80084000008B9003908D1003B08413E840078
:1003E8000008B9003908D200BF290A128A110C285E
:1003F8008316031788018901831603138501870172
:10040800880183120313850187018801831603136A
:10041800061486148113151495148B178B168B11DB
:10042800161496140B100B110F088F3960388F00B3
:100438000F1408007E088A007F0882000A128A11B9
:100448001E220A128A118000840A04087D060319F4
:100458000034FF0A0319FE0A222A831603138112A5
:1004680081110114811401150B11D9308312031362
:10047800810008003F3406345B344F3466346D34F1
:080488007D3407347F346F342A
:08400000FF3FFF3FFF3FFF3FC0
:04400E00D420FF3F7C
:00000001FF
